201901010010000100000000000000000001000000000000000000018000000000030688555872Customer                      000000000024200000000000000000000000000000000000000000000000000000000000000000000000000000000000000000000000000000000000PES00010000001 00000000000000000000000
201901010010000100000000000000000002000000000000000000028000000000030688555872Customer                      000000000012100000000000000000000000000000000000000000000000000000000000000000000000000000000000000000000000000000000000PES00010000001 00000000000000000000000
201901010190000100000000000000000070000000000000000000018000000000055000001715Foreign                       000000000010000000000000000000000000000000000000000000000000000000000000000000000000000000000000000000000000000000000000DOL00010000001X00000000000000000000000
